{
  "_format": "hh-sol-artifact-1",
  "contractName": "OilTrace",
  "sourceName": "contracts/OilTrace.sol",
  "abi": [
    {
      "inputs": [],
      "stateMutability": "nonpayable",
      "type": "constructor"
    },
    {
      "anonymous": false,
      "inputs": [
        {
          "indexed": true,
          "internalType": "uint256",
          "name": "id",
          "type": "uint256"
        },
        {
          "indexed": false,
          "internalType": "uint256",
          "name": "tpmValue",
          "type": "uint256"
        },
        {
          "indexed": false,
          "internalType": "uint8",
          "name": "grade",
          "type": "uint8"
        },
        {
          "indexed": false,
          "internalType": "uint256",
          "name": "timestamp",
          "type": "uint256"
        }
      ],
      "name": "CollectionRecorded",
      "type": "event"
    },
    {
      "inputs": [
        {
          "internalType": "uint256",
          "name": "_id",
          "type": "uint256"
        }
      ],
      "name": "getRecord",
      "outputs": [
        {
          "components": [
            {
              "internalType": "string",
              "name": "consumerRef",
              "type": "string"
            },
            {
              "internalType": "uint256",
              "name": "tpmValue",
              "type": "uint256"
            },
            {
              "internalType": "uint8",
              "name": "grade",
              "type": "uint8"
            },
            {
              "internalType": "uint256",
              "name": "volumeMl",
              "type": "uint256"
            },
            {
              "internalType": "uint256",
              "name": "timestamp",
              "type": "uint256"
            },
            {
              "internalType": "string",
              "name": "locationHash",
              "type": "string"
            },
            {
              "internalType": "string",
              "name": "driverRef",
              "type": "string"
            },
            {
              "internalType": "bytes32",
              "name": "dataIntegrity",
              "type": "bytes32"
            }
          ],
          "internalType": "struct OilTrace.CollectionRecord",
          "name": "",
          "type": "tuple"
        }
      ],
      "stateMutability": "view",
      "type": "function"
    },
    {
      "inputs": [],
      "name": "getRecordCount",
      "outputs": [
        {
          "internalType": "uint256",
          "name": "",
          "type": "uint256"
        }
      ],
      "stateMutability": "view",
      "type": "function"
    },
    {
      "inputs": [
        {
          "internalType": "uint256[]",
          "name": "_ids",
          "type": "uint256[]"
        }
      ],
      "name": "getRecords",
      "outputs": [
        {
          "components": [
            {
              "internalType": "string",
              "name": "consumerRef",
              "type": "string"
            },
            {
              "internalType": "uint256",
              "name": "tpmValue",
              "type": "uint256"
            },
            {
              "internalType": "uint8",
              "name": "grade",
              "type": "uint8"
            },
            {
              "internalType": "uint256",
              "name": "volumeMl",
              "type": "uint256"
            },
            {
              "internalType": "uint256",
              "name": "timestamp",
              "type": "uint256"
            },
            {
              "internalType": "string",
              "name": "locationHash",
              "type": "string"
            },
            {
              "internalType": "string",
              "name": "driverRef",
              "type": "string"
            },
            {
              "internalType": "bytes32",
              "name": "dataIntegrity",
              "type": "bytes32"
            }
          ],
          "internalType": "struct OilTrace.CollectionRecord[]",
          "name": "",
          "type": "tuple[]"
        }
      ],
      "stateMutability": "view",
      "type": "function"
    },
    {
      "inputs": [],
      "name": "owner",
      "outputs": [
        {
          "internalType": "address",
          "name": "",
          "type": "address"
        }
      ],
      "stateMutability": "view",
      "type": "function"
    },
    {
      "inputs": [
        {
          "internalType": "string",
          "name": "_consumerRef",
          "type": "string"
        },
        {
          "internalType": "uint256",
          "name": "_tpmValue",
          "type": "uint256"
        },
        {
          "internalType": "uint8",
          "name": "_grade",
          "type": "uint8"
        },
        {
          "internalType": "uint256",
          "name": "_volumeMl",
          "type": "uint256"
        },
        {
          "internalType": "string",
          "name": "_locationHash",
          "type": "string"
        },
        {
          "internalType": "string",
          "name": "_driverRef",
          "type": "string"
        },
        {
          "internalType": "bytes32",
          "name": "_dataIntegrity",
          "type": "bytes32"
        }
      ],
      "name": "recordCollection",
      "outputs": [
        {
          "internalType": "uint256",
          "name": "",
          "type": "uint256"
        }
      ],
      "stateMutability": "nonpayable",
      "type": "function"
    },
    {
      "inputs": [],
      "name": "recordCount",
      "outputs": [
        {
          "internalType": "uint256",
          "name": "",
          "type": "uint256"
        }
      ],
      "stateMutability": "view",
      "type": "function"
    },
    {
      "inputs": [
        {
          "internalType": "uint256",
          "name": "",
          "type": "uint256"
        }
      ],
      "name": "records",
      "outputs": [
        {
          "internalType": "string",
          "name": "consumerRef",
          "type": "string"
        },
        {
          "internalType": "uint256",
          "name": "tpmValue",
          "type": "uint256"
        },
        {
          "internalType": "uint8",
          "name": "grade",
          "type": "uint8"
        },
        {
          "internalType": "uint256",
          "name": "volumeMl",
          "type": "uint256"
        },
        {
          "internalType": "uint256",
          "name": "timestamp",
          "type": "uint256"
        },
        {
          "internalType": "string",
          "name": "locationHash",
          "type": "string"
        },
        {
          "internalType": "string",
          "name": "driverRef",
          "type": "string"
        },
        {
          "internalType": "bytes32",
          "name": "dataIntegrity",
          "type": "bytes32"
        }
      ],
      "stateMutability": "view",
      "type": "function"
    },
    {
      "inputs": [
        {
          "internalType": "uint256",
          "name": "_id",
          "type": "uint256"
        },
        {
          "internalType": "bytes32",
          "name": "_hash",
          "type": "bytes32"
        }
      ],
      "name": "verifyData",
      "outputs": [
        {
          "internalType": "bool",
          "name": "",
          "type": "bool"
        }
      ],
      "stateMutability": "view",
      "type": "function"
    }
  ],
  "bytecode": "0x60a060405234801561001057600080fd5b503373ffffffffffffffffffffffffffffffffffffffff1660808173ffffffffffffffffffffffffffffffffffffffff1681525050608051611b846100676000396000818161046301526109660152611b846000f3fe608060405234801561001057600080fd5b50600436106100885760003560e01c8063900407bc1161005b578063900407bc1461014257806397871d0914610160578063ca267f2814610190578063d5a6471d146101ae57610088565b806303e9e6091461008d5780630900de1d146100bd57806334461067146100ed5780638da5cb5b14610124575b600080fd5b6100a760048036038101906100a29190610de9565b6101de565b6040516100b49190610fa8565b60405180910390f35b6100d760048036038101906100d29190611087565b61045f565b6040516100e49190611199565b60405180910390f35b61010760048036038101906101029190610de9565b610767565b60405161011b98979695949392919061121c565b60405180910390f35b61012c610964565b60405161013991906112f0565b60405180910390f35b61014a610988565b6040516101579190611199565b60405180910390f35b61017a60048036038101906101759190611361565b61098e565b604051610187919061152e565b60405180910390f35b610198610cd7565b6040516101a59190611199565b60405180910390f35b6101c860048036038101906101c39190611550565b610ce3565b6040516101d591906115ab565b60405180910390f35b6101e6610d5e565b81600080549050811061022e576040517f08c379a000000000000000000000000000000000000000000000000000000000815260040161022590611612565b60405180910390fd5b6000838154811061024257610241611632565b5b90600052602060002090600802016040518061010001604052908160008201805461026c90611690565b80601f016020809104026020016040519081016040528092919081815260200182805461029890611690565b80156102e55780601f106102ba576101008083540402835291602001916102e5565b820191906000526020600020905b8154815290600101906020018083116102c857829003601f168201915b50505050508152602001600182015481526020016002820160009054906101000a900460ff1660ff1660ff168152602001600382015481526020016004820154815260200160058201805461033990611690565b80601f016020809104026020016040519081016040528092919081815260200182805461036590611690565b80156103b25780601f10610387576101008083540402835291602001916103b2565b820191906000526020600020905b81548152906001019060200180831161039557829003601f168201915b505050505081526020016006820180546103cb90611690565b80601f01602080910402602001604051908101604052809291908181526020018280546103f790611690565b80156104445780601f1061041957610100808354040283529160200191610444565b820191906000526020600020905b81548152906001019060200180831161042757829003601f168201915b50505050508152602001600782015481525050915050919050565b60007f000000000000000000000000000000000000000000000000000000000000000073ffffffffffffffffffffffffffffffffffffffff163373ffffffffffffffffffffffffffffffffffffffff16146104ef576040517f08c379a00000000000000000000000000000000000000000000000000000000081526004016104e690611733565b60405180910390fd5b60028860ff161115610536576040517f08c379a000000000000000000000000000000000000000000000000000000000815260040161052d9061179f565b60405180910390fd5b60006040518061010001604052808d8d8080601f016020809104026020016040519081016040528093929190818152602001838380828437600081840152601f19601f8201169050808301925050505050505081526020018b81526020018a60ff16815260200189815260200142815260200188888080601f016020809104026020016040519081016040528093929190818152602001838380828437600081840152601f19601f82011690508083019250505050505050815260200186868080601f016020809104026020016040519081016040528093929190818152602001838380828437600081840152601f19601f820116905080830192505050505050508152602001848152509080600181540180825580915050600190039060005260206000209060080201600090919091909150600082015181600001908161067f919061199a565b506020820151816001015560408201518160020160006101000a81548160ff021916908360ff160217905550606082015181600301556080820151816004015560a08201518160050190816106d4919061199a565b5060c08201518160060190816106ea919061199a565b5060e0820151816007015550506000600160008054905061070b9190611a9b565b9050600080549050600181905550807f9b8975e67cfb8fea915f105335c79bf7f36b1222809805888681262086e775fe8b8b4260405161074d93929190611acf565b60405180910390a2809150509a9950505050505050505050565b6000818154811061077757600080fd5b906000526020600020906008020160009150905080600001805461079a90611690565b80601f01602080910402602001604051908101604052809291908181526020018280546107c690611690565b80156108135780601f106107e857610100808354040283529160200191610813565b820191906000526020600020905b8154815290600101906020018083116107f657829003601f168201915b5050505050908060010154908060020160009054906101000a900460ff169080600301549080600401549080600501805461084d90611690565b80601f016020809104026020016040519081016040528092919081815260200182805461087990611690565b80156108c65780601f1061089b576101008083540402835291602001916108c6565b820191906000526020600020905b8154815290600101906020018083116108a957829003601f168201915b5050505050908060060180546108db90611690565b80601f016020809104026020016040519081016040528092919081815260200182805461090790611690565b80156109545780601f1061092957610100808354040283529160200191610954565b820191906000526020600020905b81548152906001019060200180831161093757829003601f168201915b5050505050908060070154905088565b7f000000000000000000000000000000000000000000000000000000000000000081565b60015481565b606060008383905067ffffffffffffffff8111156109af576109ae6117bf565b5b6040519080825280602002602001820160405280156109e857816020015b6109d5610d5e565b8152602001906001900390816109cd5790505b50905060005b84849050811015610ccc57600080549050858583818110610a1257610a11611632565b5b9050602002013510610a59576040517f08c379a0000000000000000000000000000000000000000000000000000000008152600401610a5090611612565b60405180910390fd5b6000858583818110610a6e57610a6d611632565b5b9050602002013581548110610a8657610a85611632565b5b906000526020600020906008020160405180610100016040529081600082018054610ab090611690565b80601f0160208091040260200160405190810160405280929190818152602001828054610adc90611690565b8015610b295780601f10610afe57610100808354040283529160200191610b29565b820191906000526020600020905b815481529060010190602001808311610b0c57829003601f168201915b50505050508152602001600182015481526020016002820160009054906101000a900460ff1660ff1660ff1681526020016003820154815260200160048201548152602001600582018054610b7d90611690565b80601f0160208091040260200160405190810160405280929190818152602001828054610ba990611690565b8015610bf65780601f10610bcb57610100808354040283529160200191610bf6565b820191906000526020600020905b815481529060010190602001808311610bd957829003601f168201915b50505050508152602001600682018054610c0f90611690565b80601f0160208091040260200160405190810160405280929190818152602001828054610c3b90611690565b8015610c885780601f10610c5d57610100808354040283529160200191610c88565b820191906000526020600020905b815481529060010190602001808311610c6b57829003601f168201915b50505050508152602001600782015481525050828281518110610cae57610cad611632565b5b60200260200101819052508080610cc490611b06565b9150506109ee565b508091505092915050565b60008080549050905090565b6000826000805490508110610d2d576040517f08c379a0000000000000000000000000000000000000000000000000000000008152600401610d2490611612565b60405180910390fd5b8260008581548110610d4257610d41611632565b5b9060005260206000209060080201600701541491505092915050565b6040518061010001604052806060815260200160008152602001600060ff16815260200160008152602001600081526020016060815260200160608152602001600080191681525090565b600080fd5b600080fd5b6000819050919050565b610dc681610db3565b8114610dd157600080fd5b50565b600081359050610de381610dbd565b92915050565b600060208284031215610dff57610dfe610da9565b5b6000610e0d84828501610dd4565b91505092915050565b600081519050919050565b600082825260208201905092915050565b60005b83811015610e50578082015181840152602081019050610e35565b60008484015250505050565b6000601f19601f8301169050919050565b6000610e7882610e16565b610e828185610e21565b9350610e92818560208601610e32565b610e9b81610e5c565b840191505092915050565b610eaf81610db3565b82525050565b600060ff82169050919050565b610ecb81610eb5565b82525050565b6000819050919050565b610ee481610ed1565b82525050565b6000610100830160008301518482036000860152610f088282610e6d565b9150506020830151610f1d6020860182610ea6565b506040830151610f306040860182610ec2565b506060830151610f436060860182610ea6565b506080830151610f566080860182610ea6565b5060a083015184820360a0860152610f6e8282610e6d565b91505060c083015184820360c0860152610f888282610e6d565b91505060e0830151610f9d60e0860182610edb565b508091505092915050565b60006020820190508181036000830152610fc28184610eea565b905092915050565b600080fd5b600080fd5b600080fd5b60008083601f840112610fef57610fee610fca565b5b8235905067ffffffffffffffff81111561100c5761100b610fcf565b5b60208301915083600182028301111561102857611027610fd4565b5b9250929050565b61103881610eb5565b811461104357600080fd5b50565b6000813590506110558161102f565b92915050565b61106481610ed1565b811461106f57600080fd5b50565b6000813590506110818161105b565b92915050565b60008060008060008060008060008060e08b8d0312156110aa576110a9610da9565b5b60008b013567ffffffffffffffff8111156110c8576110c7610dae565b5b6110d48d828e01610fd9565b9a509a505060206110e78d828e01610dd4565b98505060406110f88d828e01611046565b97505060606111098d828e01610dd4565b96505060808b013567ffffffffffffffff81111561112a57611129610dae565b5b6111368d828e01610fd9565b955095505060a08b013567ffffffffffffffff81111561115957611158610dae565b5b6111658d828e01610fd9565b935093505060c06111788d828e01611072565b9150509295989b9194979a5092959850565b61119381610db3565b82525050565b60006020820190506111ae600083018461118a565b92915050565b600082825260208201905092915050565b60006111d082610e16565b6111da81856111b4565b93506111ea818560208601610e32565b6111f381610e5c565b840191505092915050565b61120781610eb5565b82525050565b61121681610ed1565b82525050565b6000610100820190508181036000830152611237818b6111c5565b9050611246602083018a61118a565b61125360408301896111fe565b611260606083018861118a565b61126d608083018761118a565b81810360a083015261127f81866111c5565b905081810360c083015261129381856111c5565b90506112a260e083018461120d565b9998505050505050505050565b600073ffffffffffffffffffffffffffffffffffffffff82169050919050565b60006112da826112af565b9050919050565b6112ea816112cf565b82525050565b600060208201905061130560008301846112e1565b92915050565b60008083601f84011261132157611320610fca565b5b8235905067ffffffffffffffff81111561133e5761133d610fcf565b5b60208301915083602082028301111561135a57611359610fd4565b5b9250929050565b6000806020838503121561137857611377610da9565b5b600083013567ffffffffffffffff81111561139657611395610dae565b5b6113a28582860161130b565b92509250509250929050565b600081519050919050565b600082825260208201905092915050565b6000819050602082019050919050565b60006101008301600083015184820360008601526113f88282610e6d565b915050602083015161140d6020860182610ea6565b5060408301516114206040860182610ec2565b5060608301516114336060860182610ea6565b5060808301516114466080860182610ea6565b5060a083015184820360a086015261145e8282610e6d565b91505060c083015184820360c08601526114788282610e6d565b91505060e083015161148d60e0860182610edb565b508091505092915050565b60006114a483836113da565b905092915050565b6000602082019050919050565b60006114c4826113ae565b6114ce81856113b9565b9350836020820285016114e0856113ca565b8060005b8581101561151c57848403895281516114fd8582611498565b9450611508836114ac565b925060208a019950506001810190506114e4565b50829750879550505050505092915050565b6000602082019050818103600083015261154881846114b9565b905092915050565b6000806040838503121561156757611566610da9565b5b600061157585828601610dd4565b925050602061158685828601611072565b9150509250929050565b60008115159050919050565b6115a581611590565b82525050565b60006020820190506115c0600083018461159c565b92915050565b7f4f696c54726163653a207265636f726420646f6573206e6f7420657869737400600082015250565b60006115fc601f836111b4565b9150611607826115c6565b602082019050919050565b6000602082019050818103600083015261162b816115ef565b9050919050565b7f4e487b7100000000000000000000000000000000000000000000000000000000600052603260045260246000fd5b7f4e487b7100000000000000000000000000000000000000000000000000000000600052602260045260246000fd5b600060028204905060018216806116a857607f821691505b6020821081036116bb576116ba611661565b5b50919050565b7f4f696c54726163653a2063616c6c6572206973206e6f7420746865206f776e6560008201527f7200000000000000000000000000000000000000000000000000000000000000602082015250565b600061171d6021836111b4565b9150611728826116c1565b604082019050919050565b6000602082019050818103600083015261174c81611710565b9050919050565b7f4f696c54726163653a20696e76616c6964206772616465000000000000000000600082015250565b60006117896017836111b4565b915061179482611753565b602082019050919050565b600060208201905081810360008301526117b88161177c565b9050919050565b7f4e487b7100000000000000000000000000000000000000000000000000000000600052604160045260246000fd5b60008190508160005260206000209050919050565b60006020601f8301049050919050565b600082821b905092915050565b6000600883026118507fffffffffffffffffffffffffffffffffffffffffffffffffffffffffffffffff82611813565b61185a8683611813565b95508019841693508086168417925050509392505050565b6000819050919050565b600061189761189261188d84610db3565b611872565b610db3565b9050919050565b6000819050919050565b6118b18361187c565b6118c56118bd8261189e565b848454611820565b825550505050565b600090565b6118da6118cd565b6118e58184846118a8565b505050565b5b81811015611909576118fe6000826118d2565b6001810190506118eb565b5050565b601f82111561194e5761191f816117ee565b61192884611803565b81016020851015611937578190505b61194b61194385611803565b8301826118ea565b50505b505050565b600082821c905092915050565b600061197160001984600802611953565b1980831691505092915050565b600061198a8383611960565b9150826002028217905092915050565b6119a382610e16565b67ffffffffffffffff8111156119bc576119bb6117bf565b5b6119c68254611690565b6119d182828561190d565b600060209050601f831160018114611a0457600084156119f2578287015190505b6119fc858261197e565b865550611a64565b601f198416611a12866117ee565b60005b82811015611a3a57848901518255600182019150602085019450602081019050611a15565b86831015611a575784890151611a53601f891682611960565b8355505b6001600288020188555050505b505050505050565b7f4e487b7100000000000000000000000000000000000000000000000000000000600052601160045260246000fd5b6000611aa682610db3565b9150611ab183610db3565b9250828203905081811115611ac957611ac8611a6c565b5b92915050565b6000606082019050611ae4600083018661118a565b611af160208301856111fe565b611afe604083018461118a565b949350505050565b6000611b1182610db3565b91507fffffffffffffffffffffffffffffffffffffffffffffffffffffffffffffffff8203611b4357611b42611a6c565b5b60018201905091905056fea264697066735822122066c6189eecc9d7f42c1f30d2dd79a2450232541d3d40567c1d148008e79613ac64736f6c63430008140033",
  "linkReferences": {},
  "deployedLinkReferences": {}
}